:100000000C94E9080C9430090C9430090C943009D4
:100010000C9430090C9430090C9430090C9430097C
:100020000C9430090C9430090C94902D0C94622E91
:100030000C94C91F0C9430090C9430090C943009AD
:100040000C9430090C9430090C9430090C9430094C
:100050000C9430090C943D200C9430090C94300918
:100060000C9430090C9430090C9430090C9430092C
:100070000C9430090C9430090C9430090C9430091C
:100080000C9430090C9430090C9430090C9430090C
:100090000C94310A0C9430090C9430090C943009FA
:1000A0000C9430090C9430090C943009060E080E9B
:1000B000130E0A0E0C0E0E0E100E120E150E170E4B
:1000C000190E240E1B0E1D0E1F0E210E230E260EC2
:1000D0009F159F15D115D1150F162D169317931730
:1000E0006F169317121712178317931793178C17FE
:1000F0001F171F171F171F171F171F171F171F1750
:100100001F171F171F171F171F171F171F171F173F
:1001100030173E1745174C17561724182418361851
:1001200036182D1836183618361824182418321890
:10013000361836183218CF2EF62EEE2FF62EEE2F5A
:10014000422F652FEE2FBC2FCB2F6661696C656443
:1001500020746F20777269746520636F6D6D616EB6
:10016000642025640A006661696C656420746F20F0
:10017000777269746520636F6E74726F6C20627938
:1001800074650A006661696C656420746F2073741D
:1001900061727420777269746520746F2025640A17
:1001A000000000000000003E5B4F5B3E003E6B4FD6
:1001B0006B3E001C3E7C3E1C00183C7E3C18001C24
:1001C000577D571C001C5E7F5E1C0000183C180009
:1001D00000FFE7C3E7FF00001824180000FFE7DB7B
:1001E000E7FF0030483A060E00262979292600400C
:1001F0007F05050700407F05253F005A3CE73C5A34
:10020000007F3E1C1C0800081C1C3E7F0014227F3F
:100210002214005F5F005F5F0006097F017F00001E
:100220006689956A0060606060600094A2FFA29495
:100230000008047E04080010207E20100008082A10
:100240001C0800081C2A0808001E10101010000CC2
:100250001E0C1E0C0030383E383000060E3E0E06D6
:100260000000000000000000005F00000000070028
:10027000070000147F147F1400242A7F2A12002311
:100280001308646200364956205000000807030036
:1002900000001C224100000041221C00002A1C7F9B
:1002A0001C2A0008083E0808000080703000000882
:1002B0000808080800000060600000201008040220
:1002C000003E5149453E0000427F400000724949CE
:1002D0004946002141494D33001814127F10002770
:1002E00045454539003C4A4949310041211109073A
:1002F00000364949493600464949291E0000001484
:1003000000000000403400000000081422410014E6
:1003100014141414000041221408000201590906A3
:10032000003E415D594E007C1211127C007F49490C
:100330004936003E41414122007F4141413E007F1C
:1003400049494941007F09090901003E4141517372
:10035000007F0808087F0000417F410000204041E5
:100360003F01007F08142241007F40404040007F51
:10037000021C027F007F0408107F003E4141413E85
:10038000007F09090906003E4151215E007F0919DD
:1003900029460026494949320003017F0103003FF5
:1003A0004040403F001F2040201F003F4038403F5A
:1003B00000631408146300030478040300615949BE
:1003C0004D4300007F41414100020408102000001D
:1003D0004141417F0004020102040040404040408E
:1003E000000003070800002054547840007F284490
:1003F000443800384444442800384444287F0038B6
:10040000545454180000087E09020018A4A49C78D3
:10041000007F080404780000447D40000020404034
:100420003D00007F102844000000417F4000007C18
:1004300004780478007C0804047800384444443884
:1004400000FC182424180018242418FC007C08043C
:1004500004080048545454240004043F4424003C3D
:100460004040207C001C2040201C003C4030403C90
:10047000004428102844004C9090907C0044645420
:100480004C440000083641000000007700000000E6
:1004900041360800000201020402003C2623263CEB
:1004A0000003071F7FFFFFFEF8F0C020F8FEFFFEED
:1004B00079271F7FFFFFFEF8F0C020F8FEFFFF7FC7
:1004C0003F3F7FFFFEF8F0C000000000FFFFFFFF8E
:1004D000FFFF00000000000000FF7F7F7FBFBFC064
:1004E000C0C0E0E0E0E0F0F0F0F878787C3C3CFE62
:1004F000FEFEFFFFFF000000000000000000008083
:1005000080BFBFDFDFEFEF0003071F7FFFFFFFFEAE
:10051000F8E0C0E0F8FEFFFFFF7F1F07030000E0E8
:10052000F0F0F0E0ECEEF7F37020007C7C7C7E00D5
:100530007E7E7E7F7F7F000080C0E07E5B4F5BFE23
:10054000C00000C000DCD7DEDEDED7DC00C000006B
:10055000000000000000000000000000000000009B
:100560000000000000C1F3CFBF7FFFFFFCFBE7816D
:100570000000000080E3CF3FFFFFFFFCFBE78100AE
:1005800000000081E7FFFFFFFF3C0000FFFFFFFFCF
:10059000FFFFF8F8FC7C7E7E3EFEFFFFFFFFFFF7CB
:1005A000F7F7FBFB7D7D7DBEBEBEDFDFE0E000FF39
:1005B000FFFFFFFFFF00FCFC7C7E7E3E3E1F1F1FF7
:1005C0000FFFFFFFFFFFFF000000000081E7FFFFBC
:1005D000FFFFFFFFFFFFFFE7810000000000000FAB
:1005E0001F3F7F7F7F7F7F3F1E0C001F1F1F3F002D
:1005F0003F3F3F7F7F7F00307B7F78302020307807
:100600007F3B0003000F7F0F0F0F7F0F00030000E1
:1006100000000000000000000000000000000000DA
:100620000060707C7F7F7F7F1F0601030F3F7F7F0D
:100630007E7C7C7E7F7F7F1F0601070F3F7F7F7E52
:100640007C7C7E7F7F3F0F03000000007F7F7F7FE9
:100650007F7F000000000000007F7F7F7F7F7F7D25
:100660007D3D3E1E1F1F1F0F0F0707070303007F5F
:100670007F7F7F7F7F7C7C7C7C7C7C7C7C7C7C7CAB
:10068000007F7F7F7F7F7F004070787E7F7F7F3F0E
:100690000F0301030F3F7F7F7F7E787040000000D3
:1006A000000000000000000000000000000000004A
:1006B000000000000000000000000000000000003A
:1006C000000000000000000000000000000000002A
:1006D000000000000000000000000000000000001A
:1006E00000200A0A3D3D3D3D3D3D3D3D3D3D3D3DFA
:1006F0003D3D3D3D3D3D3D0A204E657665722053B2
:10070000637265656E204C6F636B0A3D3D3D3D3DF8
:100710003D3D3D3D3D3D3D3D3D3D3D3D3D3D003D46
:100720003D3D3D3D3D3D3D3D3D3D3D3D3D3D3D3DF9
:100730003D3D0A2053746F702053637265656E20CF
:100740004C6F636B200A3D3D3D3D3D3D3D3D3D3D94
:100750003D3D3D3D3D3D3D3D3D000400C35CC55C30
:1007600044454255473A20656E61626C65642E0AC5
:10077000000A0025303862003A2000253032580047
:100780000A722F632030313233343536370A000A8B
:10079000002530325820006B6579626F6172645FAA
:1007A0007265706F72743A20000A0025303258006A
:1007B0006B6579626F6172645F7365745F6C6564A9
:1007C0003A2000290A002575002F002575005D28B4
:1007D000002564002000256400200025640020001E
:1007E0002564007C0025303258006D6F7573656B91
:1007F0006579205B62746E7C782079207620685D54
:10080000287265702F61636C293A205B006D6B5F05
:10081000776865656C5F74696D655F746F5F6D6146
:1008200078203D2025640A006D6B5F776865656CF4
:100830005F6D61785F7370656564203D2025640A93
:10084000006D6B5F74696D655F746F5F6D617820BB
:100850003D2025640A006D6B5F6D61785F73706584
:100860006564203D2025640A006D6B5F696E7465C8
:100870007276616C203D2025640A006D6B5F6465B3
:100880006C6179203D2025640A006D6B5F77686597
:10089000656C5F74696D655F746F5F6D6178203D35
:1008A0002025640A006D6B5F776865656C5F6D611C
:1008B000785F7370656564203D2025640A006D6B68
:1008C0005F74696D655F746F5F6D6178203D202591
:1008D000640A006D6B5F6D61785F7370656564209D
:1008E0003D2025640A006D6B5F696E7465727661E8
:1008F0006C203D2025640A006D6B5F64656C617936
:10090000203D2025640A000A00257500363A20772C
:100910006865656C5F74696D655F746F5F6D617844
:100920003A20000A00257500353A20776865656C25
:100930005F6D61785F73706565643A20000A002519
:100940007500343A2074696D655F746F5F6D61780E
:100950003A20000A00257500333A206D61785F73F4
:10096000706565643A20000A00257500323A2069F6
:100970006E74657276616C286D73293A20000A00E6
:10098000257500313A2064656C6179282A31306D13
:1009900073293A20000A092D2056616C7565732071
:1009A0002D0A004D3E004D25643E20003F0073653A
:1009B000742064656661756C740A00433E2000779C
:1009C000686572652064656C74613A206375727342
:1009D0006F723D25642C20776865656C3D25640A3F
:1009E00053656520687474703A2F2F656E2E776991
:1009F0006B6970656469612E6F72672F77696B69C7
:100A00002F4D6F7573655F6B6579730A000A092D49
:100A1000204D6F7573656B6579202D0A4553432F03
:100A2000713A09717569740A313A0964656C6179C2
:100A3000282A31306D73290A323A09696E74657259
:100A400076616C286D73290A333A096D61785F739A
:100A5000706565640A343A0974696D655F746F5F27
:100A60006D61780A353A09776865656C5F6D617804
:100A70005F73706565640A363A09776865656C5F0F
:100A800074696D655F746F5F6D61780A0A703A0909
:100A90007072696E742076616C7565730A643A09C8
:100AA0007365742064656661756C74730A75703A59
:100AB000092B310A646F776E3A092D310A70677518
:100AC000703A092B31300A7067646F776E3A092DDE
:100AD00031300A0A7370656564203D2064656C746A
:100AE00061202A206D61785F7370656564202A201B
:100AF00028726570656174202F2074696D655F745C
:100B00006F5F6D6178290A003F004D3E2000433E33
:100B100020004C25640A0074696D65725F7265611E
:100B200064333228293A202530346C580A006B652A
:100B300079626F6172645F69646C653A2025580A56
:100B4000006B6579626F6172645F70726F746F635E
:100B50006F6C3A2025580A00686F73745F6B657973
:100B6000626F6172645F6C65647328293A2025584E
:100B70000A000A092D20537461747573202D0A0030
:100B80004743433A20352E342E30204156522D4CC7
:100B90004942433A20322E302E30204156525F4196
:100BA0005243483A20617672350A004F5054494FFB
:100BB0004E533A204C554641204D4F5553454B45D9
:100BC000592045585452414B455920434F4E534F9D
:100BD0004C4520434F4D4D414E4420343039360A68
:100BE000004255494C443A202274626F6F6B365F65
:100BF0006F6C65642D646972747922202830353AEF
:100C000034343A3138204A756C2033312032303256
:100C100030290A005649443A203078464545442850
:100C2000666F6F7374616E29205049443A203078A2
:100C3000303030302874626F6F6B36292056455241
:100C40003A203078303030310A00444553433A205E
:100C50004120637573746F6D206B6579626F61728B
:100C6000640A000A092D2056657273696F6E202D83
:100C70000A000A092D20436F6E736F6C65202D0AE0
:100C80004553432F713A09717569740A6D3A096DBC
:100C90006F7573656B65790A000A092D204D6167D0
:100CA0006963202D0A443A094465627567204D65E1
:100CB000737361676520546F67676C650A583A09FA
:100CC0004D6174726978204465627567204D6F6468
:100CD0006520546F67676C65202D2053686F7720FF
:100CE0006B65797072657373657320696E206D61D1
:100CF0007472697820677269640A4B3A094B6579A6
:100D0000626F61726420446562756720546F676723
:100D10006C65202D2053686F77206B657970726544
:100D20007373207265706F72740A4D3A094465627C
:100D30007567204D6F75736520546F67676C650A22
:100D4000563A0956657273696F6E0A533A095374BD
:100D5000617475730A433A09416374697661746515
:100D600020436F6E736F6C65204D6F64650A46316A
:100D70002D4631303A0953776974636820746F20C7
:100D80004C6179657220302D392028463130203D64
:100D9000204C30290A302D393A0953776974636839
:100DA00020746F204C6179657220302D390A4752CA
:100DB0004156453A0953776974636820746F204C33
:100DC0006179657220302028616C7465726E61747F
:100DD00065290A423A094A756D7020746F20426F86
:100DE0006F746C6F616465720A4553433A094A75C2
:100DF0006D7020746F20426F6F746C6F61646572E8
:100E00002028616C7465726E617465290A453A091F
:100E10005072696E7420454550524F4D2053657491
:100E200074696E67730A4253504143453A09436CF3
:100E300065617220454550524F4D0A000A002575E4
:100E4000002E6E6B726F3A20000A002575002E731B
:100E50007761705F6261636B736C6173685F62611D
:100E6000636B73706163653A20000A002575002E7C
:100E7000737761705F67726176655F6573633A204F
:100E8000000A002575002E6E6F5F6775693A2000B5
:100E90000A002575002E737761705F72616C745F54
:100EA000726775693A20000A002575002E73776114
:100EB000705F6C616C745F6C6775693A20000A0042
:100EC0002575002E636170736C6F636B5F746F5F69
:100ED000636F6E74726F6C3A20000A002575002EE5
:100EE000737761705F636F6E74726F6C5F63617054
:100EF000736C6F636B3A20000A0025303258006B28
:100F000065796D61705F636F6E6669672E72617778
:100F10003A20000A002575002E6D6F7573653A2022
:100F2000000A002575002E6B6579626F6172643A64
:100F300020000A002575002E6D61747269783A20D0
:100F4000000A002575002E656E61626C653A20000E
:100F50000A00253032580064656275675F636F6E02
:100F60006669672E7261773A20000A002575006471
:100F7000656661756C745F6C617965723A20003FDB
:100F8000000A6D6F7573653A206F66660A000A6D18
:100F90006F7573653A206F6E0A000A6B6579626F30
:100FA0006172643A206F66660A000A6B6579626F47
:100FB0006172643A206F6E0A000A6D61747269781A
:100FC0003A206F66660A000A6D61747269783A2089
:100FD0006F6E0A000A64656275673A206F66660A7A
:100FE000000A64656275673A206F6E0A000A0A4A51
:100FF000756D70696E6720746F20626F6F746C6FAF
:10100000616465722E2E2E2000433E2000436C65E5
:101010006172696E6720454550524F4D0A00656503
:10102000636F6E6669673A0A005B735D004B6579B2
:10103000626F6172642073746172742E0A005B5770
:101040005D005B535D005B525D005B445D005B4394
:101050005D000403300000000E03740062006F00A6
:101060006F006B0036000000100366006F006F0019
:101070007300740061006E0000000403090409029B
:101080005B00030100A0FA09040000010301010054
:101090000921110100012240000705810308000A0F
:1010A00009040100010300000009211101000122CF
:1010B00085000705820320000A09040200020300DC
:1010C00000000921110100012222000705830320ED
:1010D00000010705030320000112011001000000B8
:1010E00008EDFE00000100010203010631FF097452
:1010F000A1010975150026FF0095207508810209D8
:1011000076150026FF00952075089102C00501099B
:1011100002A10185020901A100050919012905158E
:101120000025019505750181029501750381010571
:1011300001093009311581257F950275088106095D
:10114000381581257F950175088106050C0A38023E
:101150001581257F950175088106C0C005010980AC
:10116000A10185031601002603001A81002A8300CD
:10117000751095018100C0050C0901A101850416B7
:101180000100269C021A01002A9C0275109501811B
:1011900000C005010906A101050719E029E71500AE
:1011A00025019508750181029501750881010508E1
:1011B00019012905950575019102950175039101A4
:1011C0000507190029FF150026FF009506750881FF
:1011D00000C011241FBECFEFDAE0DEBFCDBF04B6E2
:1011E00003FE27C08091370290913802A091390206
:1011F000B0913A028730904BA740B04BD1F4109297
:101200003702109238021092390210923A0214BE3C
:1012100084B7877F84BF0FB6F894A895809160004B
:10122000886180936000109260000FBEE0E0F8E3F8
:10123000099511E0A0E0B1E0ECE9F1E602C005900B
:101240000D92A233B107D9F722E0A2E3B1E001C0C9
:101250001D92A733B207E1F70E94B12A0C94CC305B
:101260000C940000FF93EF93E0913201F091330171
:10127000309709F00995EF91FF910895FC01859150
:10128000803011F0EFDFFBCF0895FF27E0E230E27E
:1012900047FF0CC0419597FF09C0EDE2609570953E
:1012A00080959095611D711D811D911D27FF02C0C4
:1012B000219530E350E2AA27660F771F881F991FF8
:1012C000AA1FA41710F0A41B63955A95A9F7AA307A
:1012D00008F0A95FA05DAF93F395611571058105D5
:1012E000910541F7ED3211F4EF93F395F21718F4ED
:1012F0003F93F395FBCF8F91B5DFFA95E1F7089512
:10130000E991F9918591803021F0853219F0AADFB9
:10131000F9CF089520E0E89455915532C1F3503348
:1013200011F4689455915A3348F4505390F3220FB6
:10133000022E220F220F200D250FF4CF0EF421953F
:1013400089919991533619F3533729F1533559F14E
:10135000BC0188279927E8945C3621F489919991FA
:1013600068945591543639F446EF7EF077FF0DC0FE
:101370008FEF9FEF0AC055374AE039F0583540E10A
:1013800021F0523642E009F00895FF93EF937DDF9C
:10139000EF91FF91B7CFFF93EF93FC0181918030E4
:1013A000B9F360DFFBCFFF93EF9368DFF1CFDF93FB
:1013B000CF93CDB7DEB72596A3DFCF91DF91089508
:1013C00083E390E02091BC0027FD02C00197D1F794
:1013D00008951092B9008CE08093B8000895CF93DF
:1013E000C82F84EA8093BC000E94E0098091B90074
:1013F000887F883039F08091B900887F803111F082
:1014000081E012C0C093BB0084E88093BC000E94BE
:10141000E0098091B900887F883129F08091B90076
:10142000887F803469F780E0CF91089584E98093C4
:10143000BC0083E390E02091BC0024FD02C0019732
:10144000D1F708958093BB0084E88093BC000E948C
:10145000E0099091B900987F81E0983209F480E02A
:1014600008951F920F920FB60F9211248F939F939E
:10147000EF93FF938091B900887F803869F038F44A
:101480008823C9F18036C9F51092340136C0883AF4
:1014900009F1883BF9F031C080913401811111C00C
:1014A0008091BB008093350180913501803120F01F
:1014B0001092350180E001C081E091E09093340109
:1014C0001DC0E0913501F0E08091BB00E554FE4F76
:1014D000808308C0E0913501F0E0E554FE4F808143
:1014E0008093BB008091350190E001968F70992721
:1014F0008093350102C01092BC0081E09091BC0045
:101500008295880F880F807C9568892B8093BC001A
:10151000FF91EF919F918F910F900FBE0F901F90B1
:101520001895CF93C82F88E70E94EF09882331F0E0
:101530001F928CE38F9384E891E013C080E00E94B7
:10154000220A882329F086E691E00E943E0911C014
:101550008C2F0E94220A882371F01F92CF938AE475
:1015600091E09F938F930E94D7090F900F900F9057
:101570000F90C0E001C0C1E00E94160A8C2FCF91ED
:101580000895CF93C62F0E94910A882321F08C2FB3
:10159000CF910C94910A80E0CF910895CF93C62FFC
:1015A0000E94910A882349F080E00E94910A8823D2
:1015B00021F08C2FCF910C94910A80E0CF91089567
:1015C0008EEA0C94910A8FEA0C94910A0F931F9360
:1015D000CF93DF938C010C5A1F4FD801ED91FC91F2
:1015E000119760832D913C9111972F5F3F4F2D9361
:1015F0003C93281B390B24353105B9F4EC01BC01AF
:101600006B5E7F4F4FE350E00E946830CE01CF9673
:10161000F8019183808345E150E060E270E0DF9162
:10162000CF911F910F910C947A30DF91CF911F9140
:101630000F9108951F93CF93DF93FC01EA5AFF4F58
:1016400021E020836A3099F4EC0132978081918106
:101650008C1B9D0B65E170E00E942D30182F153119
:1016600058F460E2CE010E94E60A1F5FF8CFDF91D6
:10167000CF911F910C94E60ADF91CF911F910895AD
:101680000F931F93CF93DF938C01EB01FE016491C5
:10169000662329F0C8010E941A0B2196F7CFDF912B
:1016A000CF911F910F910895CF93DF93EC0144E503
:1016B00050E060E270E00E947A30FE01EC5AFF4F89
:1016C000D183C083CA5ADF4F81E08883DF91CF91F5
:1016D00008959F92AF92BF92CF92DF92EF92FF92C6
:1016E0000F931F93CF93DF93EC010E94FB1F909306
:1016F0003701809336010E94E30A63E082E20E9490
:10170000CE0A882309F43CC06DE781E20E94CE0A2C
:101710008823B1F188E70E94EF09811131C080E48C
:101720000E94220A81112CC06E0184E0982E00E0F4
:1017300010E0F601E00FF11FA08086E0A89E5001A6
:101740001124E12CF12CF501EE0DFF1DEF55FE4F9C
:1017500084910E94220A8FEFE81AF80A86E0E816C0
:10176000F10489F70F5F1F4F0531110511F79A94A6
:1017700085E1C80ED11C9110DACFCA5ADF4F18820A
:10178000DF91CF911F910F91FF90EF90DF90CF905D
:10179000BF90AF909F900C94160A8BEC91E00C9444
:1017A000690BCF93DF93C82F0E94E9098EEA0E944C
:1017B000910A811102C080E09BC060E885ED0E9423
:1017C000C10A8823C1F36FE188EA0E94C10A882315
:1017D00091F360E083ED0E94C10A882361F380E405
:1017E0000E94910A882339F364E18DE80E94C10ABE
:1017F000882309F360E080E20E94C10A8823D9F2BD
:10180000CC2339F080EA0E94910A8823A1F280EC6F
:1018100006C081EA0E94910A882369F288EC0E943E
:10182000910A882341F262E08AED0E94C10A88236E
:1018300011F26FE881E80E94C10A882309F4BBCF46
:1018400061EF89ED0E94C10A882309F4B4CF60E4F6
:101850008BED0E94C10A882309F4ADCF84EA0E946F
:10186000910A882309F4A7CF86EA0E94910A882367
:1018700009F4A1CF8EE20E94910A882309F49BCF3C
:101880008FEA0E94910A882309F495CF60E081E8ED
:101890000E94C10A882309F48ECF8BEC91E00E944C
:1018A000540B63E082E20E94CE0A8823E1F06FE7E6
:1018B00081E20E94CE0A8823B1F088E70E94EF09F6
:1018C000811111C080E40E94220A81110CC0D4E071
:1018D000C0E080E00E94220ACF5FC038D1F7D1502B
:1018E000B9F7109221020E94160A0E94CD0B81E0E6
:1018F000DF91CF9108950E94D70C80912102811130
:1019000004C080910001882321F00E94CD0B109229
:10191000000180913601909137010E941320813699
:101920009A4E10F00C94E00A08950497F1F4FB012C
:1019300082818823D1F00E947B0C80EF0E94CA1321
:1019400080EF0E94F4142FEF37E689E899E02150E8
:10195000304080409040D9F700C0000081EF0E94E5
:10196000CA1381EF0E94F414E6CF81E0089580E06D
:101970000C94D10B08950F931F93CF93DF93EC0139
:101980008B0144E550E00E945B30892B59F084E5DF
:10199000F801DE0101900D928A95E1F7CA5ADF4FF6
:1019A00081E08883DF91CF911F910F910895CF93AC
:1019B000DF93CDB7DEB7C755D1090FB6F894DEBFB8
:1019C0000FBECDBF809101018823A1F0CE01019609
:1019D0000E94540B6FE177E0CE0101960E94400B0C
:1019E000BE016F5F7F4F8BEC91E00E94BB0C1092A9
:1019F000010114C0CE0101960E94540B61EE76E005
:101A0000CE0101960E94400BBE016F5F7F4F8BECB1
:101A100091E00E94BB0C81E080930101C95ADF4F25
:101A20000FB6F894DEBF0FBECDBFDF91CF91089502
:101A3000089581E008950C94950C1F93CF93DF9344
:101A400000D000D01F92CDB7DEB749835A836B8395
:101A500020914C0189819A81211112C0662349F09D
:101A60000E94741D182F682F89819A810E941D1D64
:101A700003C00E94481D182F69817A81812F04C0FC
:101A80000E94741D69817A810F900F900F900F90C2
:101A90000F90DF91CF911F910C94D80EFC014081E3
:101AA00051816281738184810C941D0D0E94BD1E41
:101AB000811102C00E94371F0C944F110C945111D8
:101AC0000C94180D0C94600D08950E9412180E9439
:101AD000640D2FEF84E39CE0215080409040E1F7BB
:101AE00000C000000C9463200F931F93CF93DF93EB
:101AF0008C010E944E0DEC01B8010E941B0D882341
:101B000009F44CC1C73D8CE5D80709F4AFC0B0F467
:101B1000C531FCE5DF0768F4C2308CE5D80708F072
:101B200053C0C115ECE5DE0701F1C130DC4529F1F8
:101B300029C1C631DC4509F4FEC024C1CC3DECE529
:101B4000DE0791F150F4C83D8CE5D80709F4B1C027
:101B5000C93DDC4509F4D4C015C1CD3DFCE5DF0726
:101B600051F1CE3DDC45C1F00DC1F80182818823E1
:101B700009F414C10E94650D11C1F8018281882306
:101B800009F40CC180919F01816080939F0180E6E0
:101B900097E00E943E0902C1F8018281882309F47E
:101BA000FDC00E94371FFAC0F8018281882309F422
:101BB000F5C080E006C0F8018281882309F4EEC0F8
:101BC00082E00E94572BEAC0F8018281882309F441
:101BD000DEC00E94BD1E811102C00E94371F0E94FC
:101BE000D01E90E09093290280932802FE01E350DA
:101BF000FC45E231F10530F4EA5AFF4F80912802AA
:101C00000C94413080912802816027C0826025C0F9
:101C1000846023C0806121C080621FC080641DC0B9
:101C200080681BC08460886018C08E7F16C08D7F5E
:101C300014C08B7F12C08F7E10C08F7D0EC08F7B33
:101C40000CC08F770AC08B7F877F07C087FB222756
:101C500020F991E0922790FB87F9809328028091E8
:101C600028020E94D41E0E94121898C0F801828196
:101C7000882351F010923D010E94FB1F90933A017E
:101C80008093390182E022C080913D0181110FC013
:101C90008091390190913A010E941320883C91056E
:101CA00030F486E20E94CA1386E20E94F41482E0B5
:101CB00024C0F8018281882361F010923E010E94C5
:101CC000FB1F90933C0180933B0180E20E945C15D6
:101CD00065C080913E0181110FC080913B019091C0
:101CE0003C010E941320883C910530F487E20E9459
:101CF000CA1387E20E94F41480E20E9463154EC06A
:101D0000F80182818111D9CF80913E018111F4CFF8
:101D100080913B0190913C010E941320883C9105E9
:101D200058F780E20E94631588E20E94CA1388E295
:101D30000E94F41433C00E94F51D982FF80182818F
:101D40002091020130910301882379F09A7A81E091
:101D500009F480E080933801911102C069E201C06A
:101D600065E3C9010E946C1F0AC08091380181118E
:101D700002C069E201C065E3C9010E946E1F0E94B2
:101D8000431E0CC081E080933D0180933E01C80159
:101D9000DF91CF911F910F910C94190D80E0DF918D
:101DA000CF911F910F91089580E090E008950895DC
:101DB000E72FF0E09F01280F311DC901F901EE0F57
:101DC000FF1FE80FF91FE60FF11DEE0FFF1FE65A88
:101DD000F84F859194910895880F991FFC01EF5851
:101DE000F84F859194910895CF93DF930E94D80E78
:101DF0000E94B010EC018115904508F041C0C1155A
:101E000080E4D80708F028C1C83ED10510F5C03ECF
:101E1000D10508F0A1C1C83AD10578F4C53AD10579
:101E200008F0A2C0C130D10509F496C108F447C139
:101E3000C430D10508F090C142C1CF3BD10508F4B0
:101E40009EC0C03CD10508F43AC1CE01805C910926
:101E5000F5C0C11590E2D90758F4C11521E0D207A9
:101E600008F07AC1C03FD10508F429C1D06574C11A
:101E7000C11580E3D80708F0E5C0CE019F70DEC031
:101E8000C11595E5D90708F043C0C11524E5D2076F
:101E900008F0F9C0C11582E5D80708F5C11591E52C
:101EA000D90708F0DCC0CE0174E0969587957A9545
:101EB000E1F783709C2F937021E030E002C0220F85
:101EC000331F9A95E2F73C68382BCF70C695C695BC
:101ED00080E2C89FE0011124C22BD32B3DC19E019B
:101EE000237033278C2F86958695C115D34508F02E
:101EF000BBC0C1E0D0E002C0CC0FDD1F2A95E2F7E5
:101F000020E2829FC0011124C82BD92BDC6824C198
:101F1000C11529E5D207A0F4C11588E5D80708F056
:101F2000B7C0C11596E5D90708F0C9C08C2F0E942B
:101F30002C118F71C82FD0E0DC2FCC27D0620CC1C0
:101F4000C1152AE5D20708F4A8C0CE019056811524
:101F5000904208F0B4C08D2F8F710E942C11DD27A4
:101F6000D0628F71D82BF8C0C53AD10509F4AAC048
:101F7000C63AD10509F0A9C0C2E8D0E4EDC0C83A1C
:101F8000D10509F4A5C0C93AD10509F4A4C0CA3ADB
:101F9000D10509F4A3C0CB3AD10509F4A2C0CC3ACB
:101FA000D10509F4A1C0CB3BD10509F4A0C0CC3BBD
:101FB000D10509F49FC0CD3AD10509F49EC0C03BBC
:101FC000D10509F49DC0CE3AD10509F49CC0CF3AA1
:101FD000D10509F49BC0C13BD10509F49AC0C23BAD
:101FE000D10509F499C0C33BD10509F498C0C43B9D
:101FF000D10509F497C0C53BD10509F496C0C63B8D
:10200000D10509F495C0C73BD10509F494C0C83B7C
:10201000D10509F493C0C93BD10509F492C0CD3B69
:10202000D10509F491C0CE3BD10509F490C0CA3B5B
:10203000D10509F48FC0C0E0D4E48EC00E94EC0E3C
:10204000EC018AC0CE019927D3FF03C0EC01D86C04
:1020500083C0EC01D06C80C0DF70D06A7DC0DC2F03
:10206000CC27C16FD06A78C0C1E0D0E002C0CC0FED
:10207000DD1F2A95E2F720E2829FC0011124C82BC0
:10208000D92BDA6869C0DC2FCC27C46FD06A64C052
:10209000DC2FCC27C06FD06A5FC08C2F8F700E945E
:1020A0002C1194E0D695C7959A95E1F7CF70D0E0C2
:1020B000DC2FCC27D06A8F70806EC82B4DC0C0E05B
:1020C000D0E04AC0C1E8D0E447C0C3E8D0E444C08F
:1020D000C2EED4E441C0C9EED4E43EC0CAEED4E4BA
:1020E0003BC0C5EBD4E438C0C6EBD4E435C0C3EB89
:1020F000D4E432C0C4EBD4E42FC0C7EBD4E42CC08A
:10210000CCECD4E429C0CDECD4E426C0C3E8D5E4BB
:1021100023C0CAE8D5E420C0C2E9D5E41DC0C4E9A3
:10212000D5E41AC0C1E2D6E417C0C3E2D6E414C0B5
:10213000C4E2D6E411C0C5E2D6E40EC0C6E2D6E4DD
:102140000BC0C7E2D6E408C0CFE6D4E405C0C0E7C0
:10215000D4E402C0CAE2D6E4CE01DF91CF91089563
:102160008238910549F1B0F48133910509F459C0E1
:1021700048F48932910509F44FC08A32910509F477
:1021800055C008958533910509F441C089339105FF
:1021900099F00895833E910531F138F4803E910520
:1021A00091F0823E9105A9F00895863E910501F1D6
:1021B000873E910539F108952091280220FD3BC00A
:1021C00021FD39C008958091280280FF34C089E341
:1021D00041C08091280282FF30C08091280284FD96
:1021E0002EC083EE37C08091280282FD26C0F5CF35
:1021F0008091280283FF25C08091280284FD1FC0A2
:1022000087EE28C08091280283FD1BC0F5CF809106
:10221000280285FD18C019C08091280285FD15C0CF
:1022200012C08091280286FD12C013C0809128023E
:1022300086FD0FC00CC080EE0DC082EE0BC080E0AA
:1022400009C086EE07C089E205C085E303C08AE2C3
:1022500001C081E390E008959091280292FF0DC0A3
:10226000282F2871283019F4877F846006C0282F12
:102270002471243011F48B7F886093FF0DC0282FC8
:102280002871283119F4877E846106C0282F2471B3
:10229000243111F48B7E886194FD877E08950C941F
:1022A000B70C0C94BA0CCF93DF930898A5E1B1E07A
:1022B00048E151E061E070E08D91E82FE295EF7028
:1022C000F0E021A18F70EB0102C0CC0FDD1F8A95D9
:1022D000E2F7CE019C2F9095922391A392A1892B96
:1022E00082A34A175B0741F71092400110923F0109
:1022F00081E00E94F211DF91CF910C94560DCF93A3
:102300006091400110924001089A109880EA8A95E5
:10231000F1F7A5E1B1E040E050E0C1E09D91E92F87
:10232000E295EF70F0E020A17091400130E09F70E5
:1023300002C0359527959A95E2F720FD08C09C2F9D
:10234000042E01C0990F0A94EAF7892F01C080E09A
:10235000872B809340014F5F5F4F43305105F1F66B
:102360000898109A21E080914001861301C020E076
:1023700041E06FE371E080E491E00E94F3110E947C
:102380005E0D81E0CF910895E82FF0E0E15CFE4F13
:102390008081089580E897E00E943E091F921F9275
:1023A0008BE797E09F938F930E94D70988E797E088
:1023B0000E943E0980913F010E94AB1E1F928F93A5
:1023C00083E797E09F938F930E94D7098DB79EB7BD
:1023D00008960FB6F8949EBF0FBE8DBF81E797E0B9
:1023E0000C943E090895FF920F931F93CF93DF93B0
:1023F0008C01F62ED72FC42F222349F081E0809341
:1024000043010E94FB1F9093420180934101809100
:1024100043018823C1F080914101909142010E94C3
:102420001320069780F0EF2DFD2FD8014C2F50E0A0
:10243000CD01801B910B841795071CF48D9181931E
:10244000F7CF10924301DF91CF911F910F91FF9031
:10245000089590934901809348010895E0914801BF
:10246000F0914901309721F00190F081E02D09941D
:1024700080E00895EF92FF920F931F93CF93DF9325
:10248000E0914801F09149013097B1F18C0102804F
:10249000F381E02D099580919F0182FF2DC080FF7F
:1024A00004C087E997E00E943E09E80118E081E94D
:1024B000E82E87E0F82E80919F0180FF0BC0888175
:1024C0001F928F93FF92EF920E94D7090F900F9067
:1024D0000F900F90115021961111EDCF80919F0117
:1024E00080FF0AC08FE897E0DF91CF911F910F9195
:1024F000FF90EF900C943E09DF91CF911F910F91C7
:10250000FF90EF900895E0914801F09149013097D4
:1025100039F022E0DC012C930480F581E02D099450
:10252000089520914601309147012817390771F02D
:102530009093470180934601E0914801F091490151
:10254000309721F00680F781E02D099408952091BD
:102550004401309145012817390771F090934501E6
:1025600080934401E0914801F0914901309721F0B6
:102570000084F185E02D0994089585B7806885BFB2
:1025800085B7806885BF089508950C94C4120C9493
:10259000C5120C94C4120C94C4120E94BD120E9465
:1025A000C9120C94C71281E008950E94F21F0E9484
:1025B00053110E9487200C94CB12CF93C82F809187
:1025C0009F0182FF1EC080FF04C080EB97E00E9445
:1025D0003E0980919F0180FF0CC01F92CF938BEA30
:1025E00097E09F938F930E94D7090F900F900F90C1
:1025F0000F9080919F0180FF04C089EA97E00E94BC
:102600003E098C2FCF910C94620DEF92FF920F93A5
:102610001F93CF93DF93CDB7DEB72A970FB6F89409
:10262000DEBF0FBECDBF0E947F110E94D312882350
:1026300009F445C080E00E94C411182F20914B017D
:10264000082F0227E1F180919F0181FD0E94CA11AC
:1026500080E090E0202F30E0482FB901082E02C022
:10266000759567950A94E2F760FF25C08E831F82F7
:1026700081E090E07C0102C0EE0CFF1C4A95E2F77D
:10268000812F90E08E219F2121E0892B09F420E009
:1026900028870E94FB1F8160782F9A8789874E8147
:1026A0005F8168858A850E94961380914B01E82698
:1026B000E0924B0114C001968330910569F68FEFCB
:1026C00089838A831B820E94FB1F8160782F9D83F0
:1026D0008C8349815A816B818D810E9496130E945F
:1026E0009C220E942E1290914A01891791F00E941B
:1026F0002E1280934A012A960FB6F894DEBF0FBEC1
:10270000CDBFDF91CF911F910F91FF90EF900C946F
:10271000DD122A960FB6F894DEBF0FBECDBFDF9153
:10272000CF911F910F91FF90EF900895CF93DF937A
:10273000CDB7DEB72B970FB6F894DEBF0FBECDBF77
:102740004F83588769877A878B87DE01119686E0E9
:10275000FD0111928A95E9F785E0FE013796019017
:102760000D928A95E1F749815A816B817C818D8137
:102770009E810E94E21A2B960FB6F894DEBF0FBE20
:10278000CDBFDF91CF910895FC01808191810E949E
:10279000B61D0895CF93882309F424C1C82F823829
:1027A000C1F40E942E1281FD1DC169E380910201D6
:1027B000909103010E946C1F0E94431E2FEF81EE37
:1027C00094E0215080409040E1F700C0000069E3B0
:1027D00019C0833801F50E942E1280FD03C163E504
:1027E00080910201909103010E946C1F0E94431E80
:1027F0002FEF81EE94E0215080409040E1F700C03F
:10280000000063E580910201909103010E946E1F18
:10281000CF910C94431E8438C1F40E942E1282FD85
:10282000E1C067E480910201909103010E946C1F56
:102830000E94431E2FEF81EE94E021508040904093
:10284000E1F700C0000067E4DDCF8CEF8C0F813A28
:1028500068F48C2F0E94FC268111C4C06C2F8091DB
:102860000201909103010E946C1FD2CF80E28C0F75
:10287000883048F4C77081E001C0880FCA95EAF734
:102880000E94F81DC5CF8BE58C0F833078F4C53AD4
:1028900029F0C63A31F083E890E005C081E890E085
:1028A00002C082E890E0CF910C94911288E58C0FE1
:1028B000873108F08FC0C83A09F445C0C93A09F415
:1028C00045C0CA3A09F445C0CB3A09F445C0CC3AF0
:1028D00009F445C0CB3B09F445C0CC3B09F445C0E5
:1028E000CD3A09F445C0C03B09F445C0CE3A09F4DD
:1028F00045C0CF3A09F445C0C13B09F445C0C23BCD
:1029000009F445C0C33B09F445C0C43B09F445C0C4
:10291000C53B09F445C0C63B09F445C0C73B09F4B3
:1029200045C0C83B09F445C0C93B09F445C0CD3B8F
:1029300009F445C0CE3B09F445C0CA3B09F445C083
:1029400080E090E044C082EE90E041C089EE90E0EB
:102950003EC08AEE90E03BC085EB90E038C086EB4D
:1029600090E035C083EB90E032C084EB90E02FC064
:1029700087EB90E02CC08CEC90E029C08DEC90E0CF
:1029800026C083E891E023C08AE891E020C082E974
:1029900091E01DC084E991E01AC081E292E017C085
:1029A00083E292E014C084E292E011C085E292E0FA
:1029B0000EC086E292E00BC087E292E008C08FE68C
:1029C00090E005C080E790E002C08AE292E0CF91FB
:1029D0000C94A712C03F30F08C2F0E942221CF917F
:1029E0000C940F22CF910895882309F464C0823893
:1029F00079F40E942E1281FF5EC069E3809102018A
:102A0000909103010E946C1F0E94431E69E310C055
:102A10008338B1F40E942E1280FF4DC063E580918F
:102A20000201909103010E946C1F0E94431E63E506
:102A300080910201909103010E946E1F0C94431E2D
:102A4000843879F40E942E1282FF35C067E48091A9
:102A50000201909103010E946C1F0E94431E67E4D3
:102A6000E7CF9CEF980F913A10F4682FE1CF90E2F6
:102A7000980F983050F4877091E001C0990F8A95B3
:102A8000EAF7892F0E94FE1DD9CF9BE5980F93305E
:102A900020F480E090E00C94911298E5980F973123
:102AA00020F480E090E00C94A712803F20F00E9478
:102AB0008A210C940F220895882321F00E94F81D8A
:102AC0000C94431E0895882321F00E94FE1D0C944F
:102AD000431E08958F929F92AF92BF92DF92EF9222
:102AE000FF920F931F93CF93DF937C01D62FC72FB5
:102AF000FC01058102950F70128111110E94151EB3
:102B00000E94EE1D882379F0112369F080E28D0F79
:102B1000883048F082E00E948D1E0E94EE1D91E0F8
:102B2000D82ED92601C0D12CBC2EB2948FE0B82269
:102B30008B2D90E0FC01E859FF4F0C9441308C2F15
:102B4000807FCF70882311F0C295C07F112399F048
:102B5000CC2309F4C3C180E28D0F883010F0D1116D
:102B600004C08C2F0E94F81D03C08C2F0E94081EE9
:102B70000E94431EB3C18D2F0E94F414CC2309F48C
:102B8000D2C180E28D0F883010F0D11104C08C2F9B
:102B90000E94FE1D03C08C2F0E940E1E0E94431E29
:102BA000C2C18C2F807FCF70803211F0C295C07F60
:102BB000DD2319F0D130C9F022C0112371F00023B8
:102BC00041F0013031F40E94281E8C2B0E94301EEF
:102BD000AAC10E94281E8C2B3AC1002319F0013093
:102BE00009F4A1C10E94391E18C0112321F006303A
:102BF00008F099C10EC0053008F095C10EC0112330
:102C000051F0002331F0F701858180FF67C18F709B
:102C100085838C2F1CC1011172C18C2F1EC18C2F7A
:102C200086958695837019F0813061F07CC11123FF
:102C300021F08D2F9C2F937002C080E090E00E94C5
:102C400091127EC1112321F08D2F9C2F937002C011
:102C500080E090E00E94A71273C11123F9F0D53FE4
:102C600051F0D63F71F0D43FA9F4809122029091A7
:102C7000230281600BC08091220290912302826026
:102C800005C08091220290912302846090932302D8
:102C9000809322028D2F0E9422211EC0D53F51F029
:102CA000D63F71F0D43FA9F4809122029091230283
:102CB0008E7F0BC080912202909123028D7F05C0F0
:102CC00080912202909123028B7F90932302809324
:102CD00022028D2F0E948A210E940F2231C18C2F47
:102CE000837009F04CC0111127C12D2F2295269514
:102CF0002770220F220F6D2F6F70862F90E0A0E0BB
:102D0000B0E04C015D01022E04C0880C991CAA1C85
:102D1000BB1C0A94D2F7D4FF12C08FE090E0A0E071
:102D2000B0E004C0880F991FAA1FBB1F2A95D2F7D5
:102D3000BC01CD01609570958095909503C060E0D1
:102D400070E0CB01C695C695C370C23051F080F4D7
:102D5000682979298A299B29C13071F00E94331C86
:102D6000EBC0682979298A299B290E94451CE4C067
:102D70000E94331CC501B4010E94211CDDC0112337
:102D800019F08C2F817001C08695882309F4D4C076
:102D90002D2F229526952770220F220F6D2F6F70F1
:102DA000862F90E0A0E0B0E04C015D01022E04C04F
:102DB000880C991CAA1CBB1C0A94D2F7D4FF12C021
:102DC0008FE090E0A0E0B0E004C0880F991FAA1F38
:102DD000BB1F2A95D2F7BC01CD01609570958095F7
:102DE000909503C060E070E0CB01C695C695C370B6
:102DF000C23051F080F4682979298A299B29C13091
:102E000071F00E94F81C98C0682979298A299B29A9
:102E10000E940A1D91C00E94F81CC501B4010E94C5
:102E2000E61C8AC08D2F90E0FC01E05EF109E531DF
:102E3000F10508F04FC0E858FF4F0C944130DF70A7
:102E40008C2F8F71112331F00E947F1C8D2F0E94D7
:102E50005C1569C00E94A01C8D2F0E94631563C081
:102E6000112341F0053008F05EC08C2F8F710E9455
:102E7000C51C59C0063008F056C0F7CF112339F0F1
:102E80008C2F8F710E947F1C4EC01123C9F38C2F91
:102E90008F710E94A01C47C0112329F08C2F8F71C5
:102EA0000E946A1C40C00E94651C3DC0112349F06D
:102EB000CF718C2F0E947F1C63E08C2F0E94781EA4
:102EC00032C081E00E948D1E023068F182E00E94D3
:102ED0008D1E29C0112331F0002391F28D2F0E9405
:102EE000CA1321C0002399F2D93349F4FFEF27EE2A
:102EF00083E0F15020408040E1F700C000008D2FBA
:102F00000E94F41410C04C2F4F706D2FC7010E9407
:102F1000D40E0E94901B14C04C2F4F706D2FC70110
:102F20000E94D70E0DC098E0B91631F0B91640F0E6
:102F300086EF8B0D823020F40E942E120E94620DCB
:102F4000DD20E1F00E94EA1D80FD18C0F701128229
:102F50000E94E41D0E947F1CC7010E94CA170E94A4
:102F6000E41DDF91CF911F910F91FF90EF90DF90C3
:102F7000BF90AF909F908F900C94A01CDF91CF9149
:102F80001F910F91FF90EF90DF90BF90AF909F90B7
:102F90008F9008950F931F93CF93DF93EC01988147
:102FA00089812B813C81232B31F08F3F31F481E0EB
:102FB0009F3F19F403C081E001C080E080FD13C091
:102FC000CE010E94740D882371F0688179818A8115
:102FD0000E94C11D8C010E941C1D0E940D1CB80185
:102FE000CE010E946A15DF91CF911F910F91089534
:102FF0000E94151E0E94251E0E94431E0E942A2325
:103000000E940F2280E090E00E94911280E090E008
:103010000C94A71280910201909103010E94701FED
:103020000C94F8170E94051E0C940A18E92FE295DB
:10303000EF704E2F50E0FA013297EE30F105B0F408
:10304000E357FF4F0C944130803F91F018F4803EDD
:1030500068F40EC0843F51F40BC0803E48F0813FBD
:1030600029F406C093FB882780F9089580E008952D
:1030700081E008950E94B61D0E9416180895CF930E
:10308000DF9300D000D01F92CDB7DEB70F900F9026
:103090000F900F900F90DF91CF910895CF93DF9312
:1030A00000D000D000D0CDB7DEB726960FB6F8948A
:1030B000DEBF0FBECDBFDF91CF9108951F93CF9399
:1030C000DF93C0914D0116E080914E01C81799F031
:1030D000D0E01C9FF0011D9FF00D1124E15BFE4F1D
:1030E0004081518162817381848195810E944E1853
:1030F0002196C770E9CFDF91CF911F91089540913C
:103100007F015091800160918101709182018091D5
:103110008301909184010C944E18CF938091840187
:1031200082958F7009F05FC080918101882309F436
:103130005AC080914D01B0914E0170917F01A091D4
:103140008001409182015091830191E07F3F09F01D
:1031500090E0692FC6E08B1709F445C04115510571
:1031600021F0AF3F21F020E003C021E001C0262F75
:1031700090E020FD35C0C89FF001C99FF00D1124DB
:10318000E15BFE4F21812A132BC02081271328C029
:103190002281211125C0238134812417350710F4A1
:1031A00021503109241B350B283C3105C8F42091EE
:1031B00084012F7020612093840126E0289FF00174
:1031C000299FF00D1124EC5AFE4F80818F70806191
:1031D00080838FE791E00E94CA17CF910C945E180C
:1031E00001968770B8CFCF910895AF92BF92CF92DA
:1031F000DF92EF92FF920F931F93CF93DF93CDB7A0
:10320000DEB761970FB6F894DEBF0FBECDBF8C015D
:1032100085E0F801DE011D9601900D928A95E1F797
:10322000D8014C9111965C9111971296EC903091C7
:103230007F016091800180918201909183010097CC
:1032400031F06F3F31F421E03F3F19F403C021E03A
:1032500001C020E0B22FB170BB2E20FD60C1F8018B
:10326000C380D480A0908101AA2009F4EEC02091EF
:103270008401C816D90628F0D601A81BB90BCD01C8
:1032800004C0809590958C0D9D1DFF24F394883C7F
:10329000910580F0F12C207F09F09CC07C2DD98A0B
:1032A000C88A6E2D89890E943F188FE791E00E949D
:1032B000CA172DC1822F807F09F054C0561314C045
:1032C000431312C0FE2CE1100FC02F702061209319
:1032D00084010E947F188FE791E00E94CA178091B5
:1032E0008401F80185835CC1CD2831F05F3F31F462
:1032F00081E04F3F19F403C081E001C080E080FD10
:1033000003C081E08E2502C080E090E0F82FF170CC
:10331000FF2E80FF1CC080914D0120914E0136E0B0
:10332000821709F41AC190E0389FF001399FF00D1F
:103330001124E15BFE4F6181561306C06081461384
:1033400003C06281E61203C001968770E9CFFE2CAC
:10335000EE2009F425C1809184018160809384016D
:10336000F12C1EC1561309C0431307C0E11005C05C
:1033700080918401F8018583A4C04D875E878D8587
:103380009E850E943A18882379F1EE2069F12091F8
:103390008401822F82958F7090E0029774F0809163
:1033A0007F019091800198878F831986DB86CA867A
:1033B0002C87CE0107960E94CA1786E0F801AFE776
:1033C000B1E001900D928A95E1F70E948D180E945C
:1033D0007F180DC0561771F04D875E878D859E85CD
:1033E0000E943A1881111AC0C8010E94CA17FF240E
:1033F000F394D6C04313F0CFE110EECF8091840157
:10340000F8018583C8010E94CA1786E0EFE7F1E062
:10341000DF011D928A95E9F7FA2CC2C0EE2021F354
:1034200020918401822F82958F7090E002972CF278
:1034300080917F01909180019A8389831B82DD8234
:10344000CC822E83CE010196B6CFC816D90628F0BD
:10345000F601E81BF90BCF0104C0809590958C0D07
:103460009D1D883C910548F0F12C7C2DD98AC88A95
:103470006E2D89890E943F184AC0FE2CEE2009F467
:10348000B3CF561333C0431331C02091840120FDC4
:1034900024C0822F82958F70482F50E0411551052E
:1034A000E1F0D80115962C9315974F30510549F04E
:1034B0008F5F982F9295907F822F8F70892B159612
:1034C0008C93C8010E94CA1786E0F801AFE7B1E00B
:1034D00001900D928A95E1F73DC086E0F801AFE7D3
:1034E000B1E001900D928A95E1F75AC04D875E8751
:1034F0008D859E850E943A1881115FCF809184014D
:10350000816080938401C8010E94CA1749C0EFE717
:10351000F1E086E0DF011D928A95E9F71BC0EE20FD
:1035200009F462CF4D875E878D859E850E943A188B
:10353000F82E882309F458CF86E0F801AFE7B1E010
:1035400001900D928A95E1F78FE791E00E94C413F4
:103550000E948D180E947F1823C04D875E878D853D
:103560009E850E94B61D292F22952F70223028F4A7
:103570009F7039F0811105C00BC0243028F49F7072
:1035800049F4805E883020F0C8010E94CA17BF2C21
:10359000FB2C06C0D80115969C91907F91F7F8CF2F
:1035A0008F2D61960FB6F894DEBF0FBECDBFDF91B1
:1035B000CF911F910F91FF90EF90DF90CF90BF9030
:1035C000AF9008951F93CF93DF93CDB7DEB72C97BD
:1035D0000FB6F894DEBF0FBECDBF4F835887698703
:1035E0007A878B879C87CE0107960E94F5188823DF
:1035F000D1F09F8188852A853B85232B31F08F3F31
:1036000031F481E09F3F19F403C081E001C080E004
:1036100080FD47C04F81588569857A858B859C855B
:103620000E944E183EC086E0FE013796DE011196DC
:1036300001900D928A95E1F7FF81E8856A857B8587
:103640006115710531F0EF3F31F481E0FF3F19F46E
:1036500003C081E001C080E080FD23C020914E01C5
:1036600030E0C90101968770992740914D0150E0E3
:1036700084179507F1F1F983EA837D836C8396E0E3
:10368000929FD001939FB00D1124A15BBE4FFE010C
:10369000319601900D929A95E1F780934E010E9428
:1036A0005E1816E080914D0190914E01891771F1DD
:1036B000189FC0011124815B9E4F0E94F51888233A
:1036C00029F1E0914D011E9FF0011124E15BFE4FB5
:1036D0004081518162817381848195810E944E185D
:1036E00080914D0190E001968770992780934D015C
:1036F000D9CF0E94121810924E0110924D01EFE79F
:10370000F1E086E0DF011D928A95E9F72C960FB66D
:10371000F894DEBF0FBECDBFDF91CF911F9108950A
:10372000EF92FF920F931F93CF93DF938C01892B1E
:1037300009F46CC0F12CEE24E394E8012196F80121
:103740008491843740F4843008F051C0813081F096
:10375000823019F15BC0853709F444C0A8F19CE7B9
:10376000980F903708F052C08F770E94F41441C030
:103770000E5F1F4FFE01849190E2980F983050F435
:103780008770FE2D01C0FF0F8A95EAF78F2F0E94E8
:10379000181E14C00E94CA132DC00E5F1F4FFE01D9
:1037A000849190E2980F983060F48770FE2D01C0EC
:1037B000FF0F8A95EAF78F2F0E941E1E0E94431E5C
:1037C00019C00E94F41416C00E5F1F4FFE01C49171
:1037D000CC2381F08FE99FE00197F1F700C0000052
:1037E000C150F6CF0E5F1F4FFE01F49003C00E9440
:1037F000CA138E018F2D882309F49FCFEFE9FFE0D4
:103800003197F1F700C000008150F5CFDF91CF91E3
:103810001F910F91FF90EF900895089508950C94D3
:103820000E1C0C940F1C0E94111C60938E0170934F
:103830008F0180939001909391010C94F8170C9450
:10384000131C0F931F9300918E0110918F012091F3
:10385000900130919101602B712B822B932B1F9142
:103860000F910C94131C0F931F9300918E011091D4
:103870008F01209190013091910160237123822367
:1038800093231F910F910C94131C0F931F9300917E
:103890008E0110918F01209190013091910160274C
:1038A0007127822793271F910F910C94131C0C945E
:1038B0000E1C0E94571C60938A0170938B018093A9
:1038C0008C0190938D010C94F81760E070E0CB01AF
:1038D0000C94591C0F931F9341E050E060E070E09E
:1038E0008A019B0104C0000F111F221F331F8A95FC
:1038F000D2F7C901B8011F910F910C94591C0F9375
:103900001F9341E050E060E070E004C0440F551F99
:10391000661F771F8A95D2F780918A0190918B015B
:10392000A0918C01B0918D018A019B01082B192B6C
:103930002A2B3B2BC901B8011F910F910C94591CE4
:103940000F931F9341E050E060E070E004C0440F2B
:10395000551F661F771F8A95D2F740955095609541
:10396000709580918A0190918B01A0918C01B0910A
:103970008D018A019B01082319232A233B23C901B6
:10398000B8011F910F910C94591C0F931F9341E0A4
:1039900050E060E070E004C0440F551F661F771FC1
:1039A0008A95D2F780918A0190918B01A0918C0128
:1039B000B0918D018A019B01082719272A273B27EF
:1039C000C901B8011F910F910C94591C0F931F93BB
:1039D00000918A0110918B0120918C0130918D0111
:1039E000602B712B822B932B1F910F910C94591CE0
:1039F0000F931F9300918A0110918B0120918C01EC
:103A000030918D0160237123822393231F910F91A5
:103A10000C94591C0F931F9300918A0110918B01F4
:103A200020918C0130918D01602771278227932787
:103A30001F910F910C94591C0895292F220F920F5A
:103A4000890FE82FE695E695E695877051E001C06D
:103A5000550F8A95EAF785E0E89FF0011124EB57AE
:103A6000FE4F20E030E070E04081CB01022E02C02A
:103A7000969587950A94E2F781708195842785232E
:103A8000842781932F5F3F4F2530310569F70895D3
:103A9000292F220F920F890F682F669566956695DC
:103AA000982F977085E0689FB001112440E050E0A6
:103AB00080E0FB01E40FF51FEB57FE4F208130E063
:103AC000092E02C0369527950A94E2F72170332714
:103AD000042E01C0220F0A94EAF7822B4F5F5F4F3A
:103AE0004530510531F70895BF92CF92DF92EF92A2
:103AF000FF920F931F93CF93DF938C01C0908A01A5
:103B0000D0908B01E0908C01F0908D0180918E011E
:103B100090918F01A0919001B0919101C82AD92A6A
:103B2000EA2AFB2ACFE1D0E0D701C6010C2E04C05F
:103B3000B695A795979587950A94D2F780FD04C00E
:103B4000219790F7B12C07C0BC2EB8018C2F0E9492
:103B5000F40E0197A9F38B2DDF91CF911F910F9157
:103B6000FF90EF90DF90CF90BF900895CF93DF93B9
:103B7000EC010E94741DBE010E94F40EDF91CF91F2
:103B800008951F93CF93DF93EB0190914C019923FC
:103B900021F0CB010E94B61D13C0882349F0CB0150
:103BA0000E94741D182F682FCE010E941D1D04C095
:103BB000CB010E94481D182FBE01812F0E94F40ED8
:103BC000DF91CF911F910895809192018595859500
:103BD0008595089580919201877008959091920142
:103BE000977081E009F480E0089580919E01089526
:103BF00090919E01892B80939E01089580959091CC
:103C00009E01892380939E01089510929E0108953C
:103C100090919D01892B80939D01089580959091AD
:103C20009D01892380939D01089510929D0108951F
:103C300090919C01892B80939C010895809590918F
:103C40009C01892380939C01089510929C01089502
:103C500080919301089508950C942B1E0C942C1EB2
:103C600090919301981721F0809393010C942E1E4C
:103C7000089580919301882329F01092930180E0A8
:103C80000C942E1E0895E0910201F09103018091A1
:103C90009E018083E0910201F09103019081809167
:103CA0009D01892B8083E0910201F09103019081B5
:103CB00080919C01892B808380919301882381F0DE
:103CC000E0910201F09103019081892B8083809122
:103CD0000201909103010E94391F81110E94391E37
:103CE00080910201909103010C943A120C942B1EC6
:103CF00098E0899F90011124262B209392010E9425
:103D00007F1C809192018595859585950C94761EF2
:103D10001092920180E00C94761E20919201809581
:103D2000822380939201982F977079F430E0482F86
:103D3000082E000C550B2417350739F0859585950D
:103D400085950E94A01C0C94881E089590933301C1
:103D50008093320108958295982F937344E0949F45
:103D6000900111248C7C86958695282B822F857551
:103D7000880F2A7A2695822B089580E090E00E9491
:103D8000923021E08D3E9E4F09F020E0822F089571
:103D900082E090E00C948A3083E090E00C948A30CA
:103DA00084E090E00C948A30682F84E090E00C94DA
:103DB0009830AB01BC018FE090E00C94AA30AB01CD
:103DC000BC0183E190E00C94AA3060E070E0CB018C
:103DD0000C94DF1E60E070E0CB010E94D91E0C94B1
:103DE000E51E6DEE7EEF80E090E00E94B63060E070
:103DF00082E090E00E94983060E083E090E00E94D2
:103E0000983010928E0110928F01109290011092B2
:103E1000910160E084E090E00E94983060E085E0ED
:103E200090E00E94983060E086E090E00E94983038
:103E30006FEF87E090E00E94983040E050E0BA01D8
:103E400088E090E00E94AA3060E08DE090E00E945F
:103E5000983040E050E0BA0188E190E00E94AA303A
:103E600060E087E190E00E9498300C94EA1E0C9488
:103E7000F11EFC01329697E080E0915029F02191EB
:103E80002223D9F38F5FF9CF08959C01FC0132966C
:103E90009FEF80E04191461789F09F3F19F441114F
:103EA00001C0982F8F5F8630A9F79F3F39F0F90145
:103EB000E90FF11D97FDFA956283089508959C011D
:103EC0002A5F3F4FFC014281461301C012820196D6
:103ED00082179307B9F708950C94451F0C945F1F40
:103EE000029626E0FC0111922A95E9F708950895BB
:103EF0000C94771F0C94771F0E947A1F0E947F11E9
:103F00000E94781F80E00E94C41191E0811101C0DD
:103F100090E0892F08950C94771F0C948B1F0E94BA
:103F20008D1F80912E02843049F11092A00120E46F
:103F300088E190E00FB6F894A895809360000FBEDA
:103F40002093600080E00E94620D0E948D1F83B765
:103F5000817F846083BF83B7816083BF78948895B5
:103F600083B78E7F83BF0FB6F894A89580916000C9
:103F7000886180936000109260000FBE08950C94D9
:103F8000771F0E9412180E942E120E94620D0C943C
:103F9000BF1F1F920F920FB60F9211248F939F9302
:103FA000AF93BF938091A001811113C0809124022F
:103FB00090912502A0912602B09127024196A11D61
:103FC000B11D8093240290932502A0932602B09302
:103FD0002702BF91AF919F918F910F900FBE0F90CD
:103FE0001F90189582E084BD93E095BD9AEF97BD30
:103FF00080936E0008952FB7F894809124029091D9
:104000002502A0912602B09127022FBF08952FB755
:10401000F89460912402709125028091260290917B
:1040200027022FBF0895CF92DF92EF92FF920F9356
:104030001F932FB7F894409124025091250260916C
:104040002602709127022FBF6A017B01EE24FF2414
:104050008C0120E030E0C016D106E206F30610F431
:10406000415051099A01281B390BC9011F910F9129
:10407000FF90EF90DF90CF90089578941F920F9269
:104080000FB60F9211248F939F93AF93BF9380919C
:10409000240290912502A0912602B0912702019658
:1040A000A11DB11D8093240290932502A0932602A6
:1040B000B0932702BF91AF919F918F910F900FBE48
:1040C0000F901F90189581E08093E00080E280932C
:1040D000D8001092C9008FE19EE40197F1F700C06B
:1040E000000087E090EBDC01809337029093380268
:1040F000A0933902B0933A029CE088E10FB6F8949D
:10410000A895809360000FBE90936000FFCF0E943F
:10411000BD1E811102C00E94371F0E94C81E8093DD
:104120009F010E94D01E90E0909329028093280264
:104130000E94CC1E682F70E080E090E00C941F1C61
:104140008091A40180FF0BC06091070185E0689F0A
:10415000B001112475956795759567952BC081FF02
:1041600009C06091070185E0689FB0011124759531
:10417000679520C082FF07C06091070185E0689FB6
:10418000B001112417C09091A3019923D1F060913F
:104190000601961788F72091070185E0289F900176
:1041A0001124929FA001939F500D112470E0CA0129
:1041B0000E942D306038710540F46115710519F4C5
:1041C00006C065E070E0862F08958FE7089581E0CE
:1041D00008958091A40180FF08C06091050170E0FE
:1041E000759567957595679521C081FF06C06091AB
:1041F000050170E07595679519C082FF04C0609154
:10420000050170E010C09091A301992399F060918D
:1042100004019617A0F780910501899FC001112420
:1042200070E00E942D306038710540F46115710511
:1042300019F406C061E070E0862F08958FE70895B5
:1042400081E00895803F21F40E94A020819504C060
:10425000813F29F40E94A0208093A8010895823F05
:1042600021F40E94A020819504C0833F29F40E947C
:10427000A0208093A7010895893F19F40E94E920A6
:1042800005C08A3F31F40E94E92081958093A901FD
:1042900008958B3F21F40E94E920819504C08C3F52
:1042A00029F40E94E9208093AA010895843F21F413
:1042B0008091A601816017C0853F21F48091A601FD
:1042C000826011C0863F21F48091A60184600BC0FA
:1042D000873F21F48091A601886005C0883F31F4B2
:1042E0008091A60180618093A60108958D3F21F4FD
:1042F0008091A40181600BC08E3F21F48091A401C4
:10430000826005C08F3F29F48091A401846080936E
:10431000A4010895803F39F48091A80187FF6CC003
:104320001092A80169C0813F29F48091A801181654
:10433000BCF362C09091A701823F29F497FF5CC053
:104340001092A70159C0833F19F41916CCF354C039
:10435000893F41F48091A90118160CF04DC01092CC
:10436000A9014AC08A3F29F48091A90187FF44C06E
:10437000F6CF8B3F39F48091AA0187FF3DC01092A0
:10438000AA013AC08C3F29F48091AA011816BCF307
:1043900033C0843F21F48091A6018E7F17C0853FF2
:1043A00021F48091A6018D7F11C0863F21F4809178
:1043B000A6018B7F0BC0873F21F48091A601877FE8
:1043C00005C0883F31F48091A6018F7E8093A601BD
:1043D00013C08D3F21F48091A4018E7F0BC08E3FCE
:1043E00021F48091A4018D7F05C08F3F29F4809135
:1043F000A4018B7F8093A4018091A70181110EC03D
:104400008091A80181110AC08091A901811106C083
:104410008091AA01811102C01092A3010895809198
:104420009F0183FF7EC08AEE97E00E943E09809143
:10443000A6011F928F9385EE97E09F938F930E9422
:10444000D70983EE97E00E943E098091A701282FAB
:10445000082E000C330B3F938F9380EE97E09F93D1
:104460008F930E94D7098EED97E00E943E098091BC
:10447000A801282F082E000C330B3F938F938BED50
:1044800097E09F938F930E94D70989ED97E00E9450
:104490003E098091A901282F082E000C330B3F9371
:1044A0008F9386ED97E09F938F930E94D70984EDB9
:1044B00097E00E943E098091AA01282F082E000C47
:1044C000330B3F938F9381ED97E09F938F930E94DF
:1044D000D7098EEC97E00E943E098091A3011F92BC
:1044E0008F938BEC97E09F938F930E94D70989EC71
:1044F00097E00E943E098091A4011F928F9386EC61
:1045000097E09F938F930E94D70983EC97E00E94D6
:104510003E098DB79EB74C960FB6F8949EBF0FBE5E
:104520008DBF85EA91E00E9483120E94FB1F909349
:10453000A2018093A10108951F93CF93DF938091EF
:10454000A1019091A2010E941320AC019091A301BE
:10455000992321F02091080130E006C02091090143
:104560008AE0289F900111244217530708F46EC077
:104570008091A701C091A801D091A9011091AA0131
:10458000811107C0C1115EC0D1115CC011115AC0A8
:104590005DC09F3F19F09F5F9093A301181624F40C
:1045A0000E94A0208093A7018091A70187FF05C0EA
:1045B0000E94A02081958093A7011C1624F40E94DC
:1045C000A0208093A8018091A80187FF05C00E94C8
:1045D000A02081958093A8014091A701442379F000
:1045E0003091A801332359F025EB4203A001112497
:1045F0005093A7013203C00111249093A8011D1606
:1046000024F40E94E9208093A9018091A90187FFE9
:1046100005C00E94E92081958093A901111624F418
:104620000E94E9208093AA018091AA0187FF05C01A
:104630000E94E92081958093AA01DF91CF911F917B
:104640000C940F229F3F09F0A6CFB7CFDF91CF91F7
:104650001F910895E5EAF1E086E0DF011D928A9559
:10466000E9F71092A3011092A40108958DE09AE059
:104670000E943E091F9281E08F931F9285E08F93E5
:104680008FEB99E09F938F930E94D7090F900F9023
:104690000F900F900F900F9008958330E9F128F458
:1046A000813061F0823009F10895853009F462C0EB
:1046B00008F449C0863009F474C008958091090156
:1046C000262F30E0280F311D2F3F310524F4680FCD
:1046D0006093090103C08FEF809309018091090164
:1046E0001F928F9388EF98E072C080910801262F67
:1046F00030E0280F311D2F3F310524F4680F6093FF
:10470000080103C08FEF80930801809108011F9278
:104710008F9386EE98E05BC080910701262F30E0F2
:10472000280F311D2F3F310524F4680F60930701D6
:1047300003C08FEF80930701809107011F928F9331
:1047400083ED98E044C080910601262F30E0280FC9
:10475000311D2F3F310524F4680F6093060103C01B
:104760008FEF80930601809106011F928F938EEB4D
:1047700098E02DC080910501262F30E0280F311DD3
:104780002F3F310524F4680F6093050103C08FEFBC
:1047900080930501809105011F928F9385EA98E02F
:1047A00016C080910401262F30E0280F311D2F3FC5
:1047B000310524F4680F6093040103C08FEF8093E8
:1047C0000401809104011F928F938AE898E09F93DF
:1047D0008F930E94D7090F900F900F900F9008951C
:1047E000833081F128F4813059F08230D1F008957E
:1047F000853009F449C0B8F1863009F456C00895EF
:1048000080910901681720F4861B8093090102C07A
:1048100010920901809109011F928F938BE798E014
:1048200054C080910801681720F4861B809308010A
:1048300002C010920801809108011F928F9389E6AF
:1048400098E043C080910701681720F4861B80938D
:10485000070102C010920701809107011F928F93F8
:1048600086E598E032C080910601681720F4861B27
:104870008093060102C010920601809106011F92EA
:104880008F9381E498E021C080910501681720F49E
:10489000861B8093050102C01092050180910501DD
:1048A0001F928F9388E298E010C0809104016817EE
:1048B00020F4861B8093040102C0109204018091B1
:1048C00004011F928F938DE098E09F938F930E9435
:1048D000D7090F900F900F900F900895CF93C82F86
:1048E0001F928F9382E19BE09F938F930E94D70941
:1048F00081E090E0A0E0B0E0BC01CD0104C0660F13
:10490000771F881F991FCA95D2F70E941F1C0F900E
:104910000F900F900F90CF910C941218CF938B3172
:1049200009F4D1C108F067C18B3009F48AC108F0DD
:104930003DC1863009F488C120F4853009F496C160
:1049400044C2873009F4A4C1883009F03EC28EE128
:1049500090E10E943E098FE69FE00E943E090E947E
:10496000CC1E1F928F938CE69FE09F938F930E94A3
:10497000D7098AE69FE00E943E090E94C81EC82F00
:1049800087E59FE00E943E091F92CF9382E59FE05A
:104990009F938F930E94D70980E59FE00E943E0974
:1049A00086E49FE00E943E098C2F81701F928F93B6
:1049B00083E49FE09F938F930E94D70981E49FE057
:1049C0000E943E0987E39FE00E943E09C1FB8827C1
:1049D00080F91F928F9384E39FE09F938F930E94AF
:1049E000D70982E39FE00E943E0986E29FE00E9491
:1049F0003E09C2FB882780F91F928F9383E29FE0D4
:104A00009F938F930E94D70981E29FE00E943E0905
:104A100088E19FE00E943E09C3FBCC27C0F91F92AA
:104A2000CF9385E19FE09F938F930E94D70983E105
:104A30009FE00E943E090E94D01EC82F8FEF9EE08B
:104A40000E943E091F92CF938AEF9EE09F938F931F
:104A50000E94D70988EF9EE00E943E098FED9EE0FC
:104A60000E943E098C2F81701F928F938CED9EE0E7
:104A70009F938F930E94D7098DB79EB780960FB6EC
:104A8000F8949EBF0FBE8DBF8AED9EE00E943E0946
:104A900083EC9EE00E943E09C1FB882780F91F92AB
:104AA0008F9380EC9EE09F938F930E94D7098EEBAB
:104AB0009EE00E943E098CEA9EE00E943E09C2FBF5
:104AC000882780F91F928F9389EA9EE09F938F93A6
:104AD0000E94D70987EA9EE00E943E0985E99EE090
:104AE0000E943E09C3FB882780F91F928F9382E9B9
:104AF0009EE09F938F930E94D70980E99EE00E94D9
:104B00003E0986E89EE00E943E09C4FB882780F9A2
:104B10001F928F9383E89EE09F938F930E94D70903
:104B200081E89EE00E943E098FE69EE00E943E09D9
:104B3000C5FB882780F91F928F938CE69EE09F9398
:104B40008F930E94D7098AE69EE00E943E098EE478
:104B50009EE00E943E09C6FB882780F91F928F9332
:104B60008BE49EE09F938F930E94D70989E49EE097
:104B70000E943E0981E49EE00E943E09C7FBCC27CB
:104B8000C0F91F92CF938EE39EE09F938F930E9474
:104B9000D7098CE39EE00E943E098DB79EB74C96E4
:104BA0000FB6F8949EBF0FBE8DBF49C0803109F487
:104BB000B4C020F48E3009F49AC007C1863109F4DC
:104BC000C7C0893109F001C183E69CE00E943E091B
:104BD0008AE49CE00E943E0984E19CE00E943E0938
:104BE00081EE9BE00E943E098BEA9BE00E943E0919
:104BF00080E89BE08FC08A32E1F060F4873209F4EC
:104C0000E0C028F48E3108F4E0C08D51DBC0893259
:104C100069F1DBC0833448F48A3308F0D0C08533AF
:104C200009F4CFC0883369F0D0C0833409F4C9C017
:104C3000CCC08DE090E10E943E090E94371FC1E088
:104C4000C9C089E99CE066C080919F01817F8E7F09
:104C500080939F0182E79CE00E943E0989E090E1F9
:104C60000E943E0981E08093AC01E9CF0E941218B6
:104C70008DEE9FE00E943E099FEF23ED80E391506F
:104C800020408040E1F700C000000E946320D7CFA1
:104C900080919F01C82FC095C170C0FB80F980939F
:104CA0009F01CC2329F081EE9FE00E943E0992C033
:104CB00084ED9FE00E943E0980919F01897F877F5C
:104CC00080939F01BCCF90919F0191FBCC27C0F9AD
:104CD00081E0C827892FC0FB81F980939F01CC23F5
:104CE00019F087EC9FE029C089EB9FE013C09091F9
:104CF0009F0192FBCC27C0F981E0C827892FC0FB18
:104D000082F980939F01CC2319F08AEA9FE015C0B5
:104D10008AE99FE00E943E0992CF90919F0193FB08
:104D2000CC27C0F981E0C827892FC0FB83F9809385
:104D30009F01CC2351F08EE89FE00E943E098091B4
:104D40009F01816080939F0145C081E89FE0E2CF91
:104D500082E79BE00E943E090E942E121F928F93D1
:104D600088E59BE09F938F930E94D709809114015F
:104D70001F928F9381E49BE09F938F930E94D709AA
:104D80008091B9011F928F938EE29BE09F938F9346
:104D90000E94D7090E9407209F938F937F936F9360
:104DA00087E19BE09F938F930E94D7098DB79EB7B1
:104DB00042960FB6F8949EBF0FBE8DBF40CF895369
:104DC00001C080E00E946E243ACF8FE79FE00E94EE
:104DD0003E09C0E08C2FCF91089580E008950C9497
:104DE000ED268E518A3030F4E82FF0E0E85EFE4F79
:104DF0008081089580E00895CF93C82F8091AC0101
:104E0000813059F020F0823009F445C039C10E9448
:104E1000F51D823209F036C104C00E94F51D8232B0
:104E200061F48C2F0E94EF26811104C08C2F0E9408
:104E30008E242FC081E090E02CC08C2F0E94ED26A4
:104E4000811126C0C431E1F070F4CB3081F0C03163
:104E5000D1F40E9436238AE09BE00E943E0982E062
:104E60008093AC0115C0C93259F0C83361F482E7B0
:104E70009CE00E943E098EE09BE00E943E0908C033
:104E80001092AC0101C188E09BE00E943E09FCC089
:104E900081E08170FBC0C43228F5CE3108F0C1C07A
:104EA000CB30A1F1D0F4C73009F0D0C08EE18093AF
:104EB000090182E3809308018AE08093070184E17D
:104EC0008093060188E08093050188E280930401C5
:104ED0008EEA99E00E943E09BCC0C33149F1C43159
:104EE000C1F0B4C0CB3409F4A6C028F4C93289F0AB
:104EF000C83361F0ABC0C13509F49BC0C23509F4B9
:104F000096C0CE3409F0A2C06AE09BC00E9436234E
:104F1000A0C08091AB01882319F01092AB0199C019
:104F20008BEB99E00E943E0981E08093AC01AEC01A
:104F300085E999E00E943E0983E899E00E943E09D4
:104F4000809109011F928F9380E899E09F938F933E
:104F50000E94D7098EE799E00E943E098CE699E00D
:104F60000E943E09809108011F928F9389E699E083
:104F70009F938F930E94D70987E699E00E943E098C
:104F800088E599E00E943E09809107011F928F9366
:104F900085E599E09F938F930E94D70983E599E077
:104FA0000E943E0982E499E00E943E098091060138
:104FB0001F928F938FE399E09F938F930E94D7095D
:104FC0008DE399E00E943E0988E299E00E943E0943
:104FD000809105011F928F9385E299E09F938F93B3
:104FE0000E94D70983E299E00E943E098CE099E093
:104FF0000E943E09809104011F928F9389E099E0FD
:105000009F938F930E94D70987E099E00E943E0901
:105010008DB79EB748960FB6F8949EBF0FBE8DBF52
:1050200018C08C2F0E94F1268093AB0112C061E062
:1050300003C061E006C06AE08091AB010E944D238D
:1050400008C08091AB010E94F02303C08CEA99E074
:1050500013C08091AB01882369F01F928F9386EA79
:1050600099E09F938F930E94D7090F900F900F9014
:105070000F9004C083EA99E00E943E0981E006C0D7
:105080001092AC0180E002C080E003CFCF91089580
:105090008091B80108959FB7F8941092AF019FBF17
:1050A00090912E02943009F057C09091E9009F70C2
:1050B0003091EC00232F217030FD20E8922B23E06B
:1050C0002093E9002091EB0020FF43C02091EE00E7
:1050D00027FF3FC02091AD01222321F02091E8005D
:1050E00025FF37C01092AD0126E03091E80035FD74
:1050F00015C030912E02343061F53091EB0035FD52
:1051000028C0215021F481E08093AD0122C0EFE955
:10511000FFE03197F1F700C00000E7CF8093F10086
:105120008091E80085FD0AC08091E80080FFFCCFF7
:105130008091E8008E778093E80006C08FB7F894DE
:1051400021E02093AF018FBF9F709093E90080E032
:1051500008959F709093E9008FEF08950F931F9328
:10516000CF93DF9300D01F92CDB7DEB78C010E94A2
:10517000672B823011F0843021F584E089831B8312
:105180000A8382E08093E9008FEF9091E8008150DC
:1051900095FD06C095ED9A95F1F700008111F5CFC8
:1051A0008091E80085FF0DC040E050E063E070E0D2
:1051B000CE0101960E94842B8091E8008E77809327
:1051C000E8000F900F900F90DF91CF911F910F91FA
:1051D0000895CF93DF9300D01F92CDB7DEB7209113
:1051E0002E02243031F523E02983805891099B83D6
:1051F0008A8382E08093E9008FEF9091E8008150EC
:1052000095FD06C095ED9A95F1F700008111F5CF57
:105210008091E80085FF0DC040E050E063E070E061
:10522000CE0101960E94842B8091E8008E778093B6
:10523000E8000F900F900F90DF91CF910895CF93DA
:10524000DF93EC010E94672B823011F08430F9F477
:1052500082E08093E9008FEF9091E800815095FD06
:1052600006C095ED9A95F1F700008111F5CF809178
:10527000E80085FF0CC040E050E066E070E0CE0141
:105280000E94842B8091E8008E778093E800DF9164
:10529000CF910895CF93DF93EC010E94672B82306A
:1052A00011F0843039F581E08093E9008FEF90911F
:1052B000E800815095FD06C095ED9A95F1F7000044
:1052C0008111F5CF8091E80085FF14C040E050E0E7
:1052D00068E070E0CE010E94842B8091E8008E7718
:1052E0008093E80088E0FE01A0EBB1E001900D9210
:1052F0008A95E1F7DF91CF9108958EE490E10E94C5
:105300003E0980912D02811109C00E94152D0E9435
:10531000722D8091E20084608093E20008958AE417
:1053200090E10E943E0910922D02089586E490E1DA
:105330000C943E0982E490E10C943E098EE390E1E6
:105340000E943E090C94C11F2091AE012F5F822F55
:1053500062E30E942130992319F02093AE01089551
:105360001092AE018091AF01882371F180912E02DD
:10537000843041F58091E9008F702091EC00922FEC
:10538000917020FD90E8892B93E09093E900909133
:10539000EB0090FF14C09091EE0097FF10C0909129
:1053A000E80095FF03C01092F100F9CF9091E8005A
:1053B00090FF05C09091E8009E779093E8008F7071
:1053C0008093E9001092AF01089542E061EC81E022
:1053D0000E948E2C42E261EC82E00E948E2C42E21E
:1053E00061EC83E00C948E2C80913002833009F4C0
:1053F00060C030F4813071F0823009F499C00895B2
:105400008A3009F485C08B3009F46BC0893009F00B
:10541000A7C020C080912F02813A09F0A1C08091DD
:10542000E800877F8093E8008091330290913402F6
:10543000892B21F468E080EB91E003C060E080E01C
:1054400090E070E00E94CF2B8091E8008B778093F2
:10545000E800089580912F02813209F081C0809187
:10546000330290913402029708F07AC08091E800EC
:10547000877F8093E8008091E80082FD05C08091DD
:105480002E028111F8CF6CC02091F3008091F200C0
:1054900090E0922B029729F48091F1008B7F81306C
:1054A00021F48091F1008093B8018091E8008B771E
:1054B00053C080912F02813A09F052C0809133028B
:1054C00090913402892B09F04BC08091E800877FCE
:1054D0008093E8008091E80080FFFCCF8091140168
:1054E00036C080912F028132D9F58091330290919C
:1054F0003402892BA9F58091E800877F8093E8002A
:105500000E94C32C80913102809314010C941218D4
:1055100080912F02813221F58091E800877F80936E
:10552000E8000E94C32C809132028093B901089553
:1055300080912F02813AA1F48091E800877F8093C7
:10554000E8008091E80080FFFCCF8091B901809352
:10555000F1008091E8008E778093E8000C94C32CD2
:10556000089584B7877F84BF0FB6F894A89580917B
:105570006000886180936000109260000FBE80E838
:1055800080936100109261000E94CD120E94152D3F
:105590000E94722D8091E20084608093E2008BE48F
:1055A00098E20E94A61E78940E9406300E94D512AE
:1055B0008AE091E00E9429128DE290E10E943E096A
:1055C00080912E02853089F489E290E10E943E09A3
:1055D0000E948F1F80912C02882391F30E947C1FD0
:1055E000882371F30E946E2BEBCF0E940513E8CF46
:1055F0000C94FA2A292F332723303105C9F060F49F
:105600002130310581F02230310509F047C08BE5AA
:1056100090E02EE730E146C02132310511F122320F
:10562000310561F13BC082E190E029ED30E13AC003
:1056300099278130910561F040F08230910559F051
:10564000039761F5E2E5F0E108C0EAE7F0E105C0A3
:10565000E8E6F0E102C0E8E5F0E1849190E09F0126
:1056600021C063307105D0F4660F771FFB01E55D43
:10567000FE4F2081318189E090E014C063307105D4
:1056800068F4FB01EE0FFF1FEB5DFE4F20813181BF
:10569000FB01EE5DFE4F808190E004C080E090E071
:1056A00020E030E0FA013183208308950895CF93FC
:1056B000C82F0E94562BC093BA01CF9108958091B4
:1056C0002E02843011F081E0089582E008958091E7
:1056D000BA01811102C00C945F2B089580E189BD4D
:1056E00082E189BD09B400FEFDCF8091D8008F7D95
:1056F0008093D8008091E00082608093E0008091E8
:10570000E00081FDFCCF0895CF92DF92EF92FF92EF
:105710000F931F93CF93DF93EC018B017A010E94CB
:10572000E22C811133C0E114F10439F0F7018081DA
:105730009181081B190BC80FD91FC12CD12C011541
:10574000110519F18091E80085FD16C08091E800EF
:105750008E778093E800E114F10449F0F70180812D
:105760009181C80ED91ED182C08285E00FC00E94EF
:10577000E22C882321F30AC089918093F100015023
:105780001109FFEFCF1ADF0ADACF80E0DF91CF9166
:105790001F910F91FF90EF90DF90CF90089520918F
:1057A0003502309136022617370748F0611571052A
:1057B00039F42091E8002E772093E80001C0B90168
:1057C000FC0120E06115710579F180912E0288239A
:1057D000F1F18530F1F18091E80083FD3CC08091CA
:1057E000E80082FD2EC08091E80080FFEBCF209181
:1057F000F3008091F20090E0922B6115710551F059
:105800008830910538F421912093F100615071099D
:105810000196F3CF21E0089709F020E08091E8009D
:105820008E778093E800CECF2111CFCF0AC0809130
:105830002E02882361F0853061F08091E80083FDBD
:105840000AC08091E80082FFF2CF80E0089582E0F4
:10585000089583E0089581E0089520913502309104
:1058600036022617370748F06115710539F4209183
:10587000E8002E772093E80001C0B901FC0120E088
:105880006115710591F180912E02882309F440C0C1
:10589000853009F43FC08091E80083FD3DC08091D0
:1058A000E80082FD2FC08091E80080FFE9CF2091C1
:1058B000F3008091F20090E0922B6115710559F090
:1058C0008830910540F424912093F1003196615085
:1058D00071090196F2CF21E0089709F020E080914C
:1058E000E8008E778093E800CBCF2111CCCF0AC09F
:1058F00080912E02882361F0853061F08091E8006C
:1059000083FD0AC08091E80082FFF2CF80E0089515
:1059100082E0089583E0089581E00895982F9730FC
:1059200068F59093E900981739F07091EC00209198
:10593000ED005091F00003C0242F762F50E021FDA0
:1059400002C09F5FECCF3091EB003E7F3093EB00C5
:105950003091ED003D7F3093ED003091EB003160F0
:105960003093EB007093EC002093ED005093F00027
:105970002091EE0027FDE5CF80E008958F708093A1
:10598000E90081E0089580912F0287FF11C0809186
:10599000E80082FD05C080912E028111F8CF11C070
:1059A0008091E8008B770BC080912E02882349F00C
:1059B0008091E80080FFF8CF8091E8008E77809397
:1059C000E80008952091E4003091E50095E64091CB
:1059D000EC00842F817040FF23C08091E80080FD9F
:1059E0001DC080912E02882399F0853099F0809116
:1059F000EB0085FD11C04091E4005091E5002417B3
:105A0000350729F3915011F09A01E1CF84E0089510
:105A100082E0089583E0089581E0089580E008958C
:105A20004091E80042FFDDCF08950E94832D0E943F
:105A30008B2DE0EEF0E0808181608083E8EDF0E086
:105A400080818F77808319BCA7EDB0E08C918E7F29
:105A50008C9380818F7E808310922D0208950F9306
:105A60001F93CF93DF930E94832D0E948B2DC8ED4F
:105A7000D0E088818F778883888180688883888157
:105A80008F7D888319BC10922E0210922A021092E8
:105A90002C0210922B0200EE10E0F80180818B7F27
:105AA000808388818160888342E060E080E00E949A
:105AB0008E2CE1EEF0E080818E7F8083E2EEF0E0DC
:105AC000808181608083808188608083F80180810B
:105AD0008E7F8083888180618883DF91CF911F9141
